{
  "_format": "hh-sol-artifact-1",
  "contractName": "gmGnPortal",
  "sourceName": "contracts/gmGnPortal.sol",
  "abi": [
    {
      "inputs": [],
      "stateMutability": "nonpayable",
      "type": "constructor"
    },
    {
      "anonymous": false,
      "inputs": [
        {
          "indexed": true,
          "internalType": "address",
          "name": "from",
          "type": "address"
        },
        {
          "indexed": false,
          "internalType": "uint256",
          "name": "timestamp",
          "type": "uint256"
        },
        {
          "indexed": false,
          "internalType": "string",
          "name": "message",
          "type": "string"
        }
      ],
      "name": "NewGm",
      "type": "event"
    },
    {
      "anonymous": false,
      "inputs": [
        {
          "indexed": true,
          "internalType": "address",
          "name": "from",
          "type": "address"
        },
        {
          "indexed": false,
          "internalType": "uint256",
          "name": "timestamp",
          "type": "uint256"
        },
        {
          "indexed": false,
          "internalType": "string",
          "name": "message",
          "type": "string"
        }
      ],
      "name": "NewGn",
      "type": "event"
    },
    {
      "inputs": [],
      "name": "getAllGMs",
      "outputs": [
        {
          "components": [
            {
              "internalType": "address",
              "name": "gmer",
              "type": "address"
            },
            {
              "internalType": "string",
              "name": "message",
              "type": "string"
            },
            {
              "internalType": "uint256",
              "name": "timestamp",
              "type": "uint256"
            }
          ],
          "internalType": "struct gmGnPortal.Gm[]",
          "name": "",
          "type": "tuple[]"
        }
      ],
      "stateMutability": "view",
      "type": "function"
    },
    {
      "inputs": [],
      "name": "getAllGNs",
      "outputs": [
        {
          "components": [
            {
              "internalType": "address",
              "name": "gner",
              "type": "address"
            },
            {
              "internalType": "string",
              "name": "message",
              "type": "string"
            },
            {
              "internalType": "uint256",
              "name": "timestamp",
              "type": "uint256"
            }
          ],
          "internalType": "struct gmGnPortal.Gn[]",
          "name": "",
          "type": "tuple[]"
        }
      ],
      "stateMutability": "view",
      "type": "function"
    },
    {
      "inputs": [],
      "name": "getTotalGMs",
      "outputs": [
        {
          "internalType": "uint256",
          "name": "",
          "type": "uint256"
        }
      ],
      "stateMutability": "view",
      "type": "function"
    },
    {
      "inputs": [],
      "name": "getTotalGNs",
      "outputs": [
        {
          "internalType": "uint256",
          "name": "",
          "type": "uint256"
        }
      ],
      "stateMutability": "view",
      "type": "function"
    },
    {
      "inputs": [
        {
          "internalType": "string",
          "name": "_message",
          "type": "string"
        }
      ],
      "name": "sayGM",
      "outputs": [],
      "stateMutability": "nonpayable",
      "type": "function"
    },
    {
      "inputs": [
        {
          "internalType": "string",
          "name": "_message",
          "type": "string"
        }
      ],
      "name": "sayGN",
      "outputs": [],
      "stateMutability": "nonpayable",
      "type": "function"
    }
  ],
  "bytecode": "0x60806040523480156200001157600080fd5b506200005d6040518060400160405280601b81526020017f4465706c6f79696e6720736d61727420636f6e74726163742e2e2e00000000008152506200006360201b6200073f1760201c565b620001f7565b62000103816040516024016200007a919062000170565b6040516020818303038152906040527f41304fac000000000000000000000000000000000000000000000000000000007bffffffffffffffffffffffffffffffffffffffffffffffffffffffff19166020820180517bffffffffffffffffffffffffffffffffffffffffffffffffffffffff83818316178352505050506200010660201b60201c565b50565b60008151905060006a636f6e736f6c652e6c6f679050602083016000808483855afa5050505050565b60006200013c8262000194565b6200014881856200019f565b93506200015a818560208601620001b0565b6200016581620001e6565b840191505092915050565b600060208201905081810360008301526200018c81846200012f565b905092915050565b600081519050919050565b600082825260208201905092915050565b60005b83811015620001d0578082015181840152602081019050620001b3565b83811115620001e0576000848401525b50505050565b6000601f19601f8301169050919050565b61110e80620002076000396000f3fe608060405234801561001057600080fd5b50600436106100625760003560e01c8063085799a6146100675780631ba7f2e71461008557806329b04b41146100a35780633471a409146100bf5780638cb09282146100dd5780639fc75d22146100f9575b600080fd5b61006f610117565b60405161007c9190610dc3565b60405180910390f35b61008d610162565b60405161009a9190610ce8565b60405180910390f35b6100bd60048036038101906100b89190610a47565b6102b3565b005b6100c761042b565b6040516100d49190610dc3565b60405180910390f35b6100f760048036038101906100f29190610a47565b610476565b005b6101016105ee565b60405161010e9190610d0a565b60405180910390f35b600061015a6040518060400160405280601581526020017f5765206861766520256420746f74616c20474d732100000000000000000000008152506000546107d8565b600054905090565b60606002805480602002602001604051908101604052809291908181526020016000905b828210156102aa57838290600052602060002090600302016040518060600160405290816000820160009054906101000a900473ffffffffffffffffffffffffffffffffffffffff1673ffffffffffffffffffffffffffffffffffffffff1673ffffffffffffffffffffffffffffffffffffffff16815260200160018201805461020f90610fd7565b80601f016020809104026020016040519081016040528092919081815260200182805461023b90610fd7565b80156102885780601f1061025d57610100808354040283529160200191610288565b820191906000526020600020905b81548152906001019060200180831161026b57829003601f168201915b5050505050815260200160028201548152505081526020019060010190610186565b50505050905090565b60018060008282546102c59190610f03565b9250508190555061030c6040518060400160405280601981526020017f25732068617320474e2d6420772f206d657373616765202573000000000000008152503383610874565b600360405180606001604052803373ffffffffffffffffffffffffffffffffffffffff16815260200183815260200142815250908060018154018082558091505060019003906000526020600020906003020160009091909190915060008201518160000160006101000a81548173ffffffffffffffffffffffffffffffffffffffff021916908373ffffffffffffffffffffffffffffffffffffffff16021790555060208201518160010190805190602001906103cb92919061093c565b506040820151816002015550503373ffffffffffffffffffffffffffffffffffffffff167f82c63b1b92f75f0d4445468d89f01bbfab6d693d10cfe7d8e60a62ded4d775174283604051610420929190610dde565b60405180910390a250565b600061046e6040518060400160405280601581526020017f5765206861766520256420746f74616c20474e732100000000000000000000008152506001546107d8565b600154905090565b60016000808282546104889190610f03565b925050819055506104cf6040518060400160405280601981526020017f25732068617320474d2d6420772f206d657373616765202573000000000000008152503383610874565b600260405180606001604052803373ffffffffffffffffffffffffffffffffffffffff16815260200183815260200142815250908060018154018082558091505060019003906000526020600020906003020160009091909190915060008201518160000160006101000a81548173ffffffffffffffffffffffffffffffffffffffff021916908373ffffffffffffffffffffffffffffffffffffffff160217905550602082015181600101908051906020019061058e92919061093c565b506040820151816002015550503373ffffffffffffffffffffffffffffffffffffffff167fee86ba231d4398fdc6bddfeaf10d67c92be43790841bf9ae08cc7c476f01294e42836040516105e3929190610dde565b60405180910390a250565b60606003805480602002602001604051908101604052809291908181526020016000905b8282101561073657838290600052602060002090600302016040518060600160405290816000820160009054906101000a900473ffffffffffffffffffffffffffffffffffffffff1673ffffffffffffffffffffffffffffffffffffffff1673ffffffffffffffffffffffffffffffffffffffff16815260200160018201805461069b90610fd7565b80601f01602080910402602001604051908101604052809291908181526020018280546106c790610fd7565b80156107145780601f106106e957610100808354040283529160200191610714565b820191906000526020600020905b8154815290600101906020018083116106f757829003601f168201915b5050505050815260200160028201548152505081526020019060010190610612565b50505050905090565b6107d5816040516024016107539190610d2c565b6040516020818303038152906040527f41304fac000000000000000000000000000000000000000000000000000000007bffffffffffffffffffffffffffffffffffffffffffffffffffffffff19166020820180517bffffffffffffffffffffffffffffffffffffffffffffffffffffffff8381831617835250505050610913565b50565b61087082826040516024016107ee929190610d93565b6040516020818303038152906040527f9710a9d0000000000000000000000000000000000000000000000000000000007bffffffffffffffffffffffffffffffffffffffffffffffffffffffff19166020820180517bffffffffffffffffffffffffffffffffffffffffffffffffffffffff8381831617835250505050610913565b5050565b61090e83838360405160240161088c93929190610d4e565b6040516020818303038152906040527fe0e9ad4f000000000000000000000000000000000000000000000000000000007bffffffffffffffffffffffffffffffffffffffffffffffffffffffff19166020820180517bffffffffffffffffffffffffffffffffffffffffffffffffffffffff8381831617835250505050610913565b505050565b60008151905060006a636f6e736f6c652e6c6f679050602083016000808483855afa5050505050565b82805461094890610fd7565b90600052602060002090601f01602090048101928261096a57600085556109b1565b82601f1061098357805160ff19168380011785556109b1565b828001600101855582156109b1579182015b828111156109b0578251825591602001919060010190610995565b5b5090506109be91906109c2565b5090565b5b808211156109db5760008160009055506001016109c3565b5090565b60006109f26109ed84610e33565b610e0e565b905082815260208101848484011115610a0a57600080fd5b610a15848285610f95565b509392505050565b600082601f830112610a2e57600080fd5b8135610a3e8482602086016109df565b91505092915050565b600060208284031215610a5957600080fd5b600082013567ffffffffffffffff811115610a7357600080fd5b610a7f84828501610a1d565b91505092915050565b6000610a948383610c2a565b905092915050565b6000610aa88383610c7a565b905092915050565b610ab981610f59565b82525050565b610ac881610f59565b82525050565b6000610ad982610e84565b610ae38185610ebf565b935083602082028501610af585610e64565b8060005b85811015610b315784840389528151610b128582610a88565b9450610b1d83610ea5565b925060208a01995050600181019050610af9565b50829750879550505050505092915050565b6000610b4e82610e8f565b610b588185610ed0565b935083602082028501610b6a85610e74565b8060005b85811015610ba65784840389528151610b878582610a9c565b9450610b9283610eb2565b925060208a01995050600181019050610b6e565b50829750879550505050505092915050565b6000610bc382610e9a565b610bcd8185610ee1565b9350610bdd818560208601610fa4565b610be6816110c7565b840191505092915050565b6000610bfc82610e9a565b610c068185610ef2565b9350610c16818560208601610fa4565b610c1f816110c7565b840191505092915050565b6000606083016000830151610c426000860182610ab0565b5060208301518482036020860152610c5a8282610bb8565b9150506040830151610c6f6040860182610cca565b508091505092915050565b6000606083016000830151610c926000860182610ab0565b5060208301518482036020860152610caa8282610bb8565b9150506040830151610cbf6040860182610cca565b508091505092915050565b610cd381610f8b565b82525050565b610ce281610f8b565b82525050565b60006020820190508181036000830152610d028184610ace565b905092915050565b60006020820190508181036000830152610d248184610b43565b905092915050565b60006020820190508181036000830152610d468184610bf1565b905092915050565b60006060820190508181036000830152610d688186610bf1565b9050610d776020830185610abf565b8181036040830152610d898184610bf1565b9050949350505050565b60006040820190508181036000830152610dad8185610bf1565b9050610dbc6020830184610cd9565b9392505050565b6000602082019050610dd86000830184610cd9565b92915050565b6000604082019050610df36000830185610cd9565b8181036020830152610e058184610bf1565b90509392505050565b6000610e18610e29565b9050610e248282611009565b919050565b6000604051905090565b600067ffffffffffffffff821115610e4e57610e4d611098565b5b610e57826110c7565b9050602081019050919050565b6000819050602082019050919050565b6000819050602082019050919050565b600081519050919050565b600081519050919050565b600081519050919050565b6000602082019050919050565b6000602082019050919050565b600082825260208201905092915050565b600082825260208201905092915050565b600082825260208201905092915050565b600082825260208201905092915050565b6000610f0e82610f8b565b9150610f1983610f8b565b9250827fffffffffffffffffffffffffffffffffffffffffffffffffffffffffffffffff03821115610f4e57610f4d61103a565b5b828201905092915050565b6000610f6482610f6b565b9050919050565b600073ffffffffffffffffffffffffffffffffffffffff82169050919050565b6000819050919050565b82818337600083830152505050565b60005b83811015610fc2578082015181840152602081019050610fa7565b83811115610fd1576000848401525b50505050565b60006002820490506001821680610fef57607f821691505b6020821081141561100357611002611069565b5b50919050565b611012826110c7565b810181811067ffffffffffffffff8211171561103157611030611098565b5b80604052505050565b7f4e487b7100000000000000000000000000000000000000000000000000000000600052601160045260246000fd5b7f4e487b7100000000000000000000000000000000000000000000000000000000600052602260045260246000fd5b7f4e487b7100000000000000000000000000000000000000000000000000000000600052604160045260246000fd5b6000601f19601f830116905091905056fea26469706673582212206e9da9a6acd87bce30f96b7098e576ac64eb07653510d14f8512d4f0fd1668a464736f6c63430008040033",
  "linkReferences": {},
  "deployedLinkReferences": {}
}